:100AE800C0F9A4B0999282F880908883C6A1868EB6
:0D0AF800BF7FFF40792430191202780010F2
:10097F0001340002360000013800012500022B006F
:10098F0000013100013B1E013D01013E01013C1EF2
:10099F00042D00000000013A000122000121000196
:0C09AF00390102230000012600013FFF77
:1009BC008D80EF24FB601414601B146022240370E0
:1009CC0026E5A0541F4480F5A0801CE5A0541F44CC
:1009DC00A0F5A08012E5A0541F44C0F5A08008E546
:0B09EC00A0541F44E0F5A053A01F2200
:100C0400EF4E600F7D0C7CA9DCFEDDFCEF1F70F065
:030C14001E80ED52
:010C170022BA
:100A2300E4FFC2B3D2B0D2B2D2B120C4027F042059
:100A3300C2027F08C2B2D2B0D2B3D2B120C4027F05
:060A43000520C2027F093C
:010A4900228A
:10064D00E53460030206E5753401120A238F35E5A2
:10065D003565335535F532853533B40410E53D64D4
:10066D00046004053D8003753D01753E01E532B41E
:10067D000512E53DB4030DE53EB40105753E02805E
:10068D0003753E01E532B40825E53DB40320E53E92
:10069D00B40109E53BC394505002053BE53EB4025D
:1006AD000DE53CC3944B50067405253CF53CE532F5
:1006BD00B40925E53DB40320E53EB40109E53BD37E
:1006CD0094144002153BE53EB4020DE53CD394195C
:0906DD00400674FB253CF53C22AB
:100898007C00E4FF1208A9900AF4E493FD7C007F31
:0108A800014E
:1008A900AB078D828C8374017E00A803088005C381
:1008B90033CE33CED8F9FDAC067F061209BCAD8222
:1008C900AC830F1209BC7F017E00120C04AF0374C4
:1008D900017E00A807088005C333CE33CED8F9FDC1
:0F08E900AC067F061209BC7DFF7C000F0209BC24
:0F0C2A00E4FAAF027DFF7C001208A90ABA08F3B2
:010C39002298
:1003C900E53D24FE60731470030204A31470030254
:1003D90004FE240360030205AE900AF4E493FD7C55
:1003E90000E4FF1208A9AE2BAF2C7C037DE81203B1
:1003F900667C007D0A12036674E82DF582740A3C56
:10040900F5831208A2AE2BAF2C7C007D6412036623
:100419007C007D0A12036674E82DF582740A3CF5A6
:1004290083E493FD7C007F021208A97DC87C007FCC
:10043900061208A9E5250204F87DC77C00E4FF122D
:1004490008A9E539900AE81208A3D3E53A94E874B3
:10045900809483401FAF3A7E007C037DE8120366D7
:1004690074E82FF582740A3EF583E493FD7C007FDE
:10047900051208A9E53A75F0648475F00A84E5F077
:10048900900AE893FD7C007F061208A9E53A75F009
:100499000A8475F00A84E5F08055E53E24FE60275C
:1004A9000460030205AE7D8C120898E53B75F00ADD
:1004B90084900AE893FD7C007F061208A9E53B7544
:1004C900F00A84E5F080287D8C7C00E4FF1208A9FD
:1004D9007DC71208A5E53C75F00A84900AE893FDEA
:1004E9007C007F061208A9E53C75F00A84E5F090C6
:1004F9000AE80205A57DC8120898D3E52494E8E521
:10050900239403401FAE23AF247C037DE8120366C6
:1005190074E82FF582740A3EF583E493FD7C007F2D
:10052900041208A9D3E5249464E52394004026AE77
:1005390023AF247C007D641203667C007D0A1203CC
:100549006674E82DF582740A3CF583E493FD7C001A
:100559007F051208A9D3E524940AE52394004026CF
:10056900AE23AF247C007D0A1203667C007D0A124B
:10057900036674E82DF582740A3CF583E493FD7CE7
:10058900007F061208A9AE23AF247C007D0A12035E
:100599006674E82DF582740A3CF583E493FD7C00CA
:0605A9007F071208A922E1
:03000B00020BA63F
:100BA600C0E0C0D0758A18758CFC0534E534B405F0
:090BB60003753400D0D0D0E03208
:100A7100758911758A18758CFCC28DD28CD2A9D258
:0E0A8100AF758BB0758D3CC28FD28ED2AB227A
:03001B00020B22B3
:100B2200C0E0C0D0758BB0758D3C0522E522B414AF
:0B0B3200057522000521D0D0D0E03274
:100BEE00120C3A7F901209F7120C187F011209F7B6
:060BFE00120C1802000EAB
:100A8F00E4F508120C3A7F911209F7120C18120BA9
:0D0A9F00058F087F01120BBF12000EAF087B
:010AAC002227
:10094200120A8F8F38E538C3949940047525012225
:10095200E538C39466400AE5389499500475250237
:1009620022E538C39419400AE53894665004752587
:0D0972000322E538C39419500375250422B3
:100ACB00E4FB120A4A7FCC120AAD7F44120AADE452
:0C0ADB00FB7F647E00120C040BBB08F5CE
:010AE70022EC
:1005AF00120A4A7FCC120AAD7F44120AAD1203C958
:1005BF00120A4A7FCC120AAD7FBE120AAD1203C9CE
:1005CF00120B8C8F08120B8C7509008F0AE50AF538
:1005DF0009E508F50A1203C9E50954F87019AC09C1
:1005EF00AD0A12029AE4FBFA7980783D1201168F58
:1005FF002A8E298D288C27E4FFFE7DC87C42AB2AEA
:10060F00AA29A928A8271201161202D38E2B8F2CE4
:10061F001203C9AE2BAF2C7C007D641203667C00E5
:10062F007D0A120366AB05AE2BAF2C7C037DE8125F
:0D063F0003667C007D0A120366ED2BF53189
:01064C00228B
:1008F8007F007E007D007C00D290E4F522F5213057
:100908009135AC2212029FE4FBFA79087841120172
:1009180016C004C005C006C007AF217E007C007D5C
:10092800AA120354AC06AD07E412029AD003D0020F
:09093800D001D000120025C2908C
:010941002293
:10077B00850A08850B091208F81202D38E088F0917
:10078B00E509650B7004E508650A605DAC08AD0909
:10079B00EC12029A8F308E2F8D2E8C2DC3E509957E
:1007AB000BFFE508950AFEC3EF9405EE6480948079
:1007BB004015E50B9509FDE50A9508FCC3ED94057D
:1007CB00EC648094805005753901801DD3EF940A39
:1007DB00EE64809480500AED940AEC64809480401F
:1007EB00057539038003753902E4FFFE7D207C41DA
:1007FB00AB30AA2FA92EA82D1201161202D38F3AB5
:01080B0022CA
:1006E600E52524FE601414601B1460222403702187
:1006F600E53F54F0440EF53F8017E53F54F0440CB7
:10070600F53F800DE53F54F04408F53F8003533F25
:10071600F0E53924FE60091460042402700F800598
:10072600533F7F8008E53F547F4480F53FE53FFD1A
:100736007C007F041209BCE53B75F064A4FFC3E5A9
:100746002C9FE52B95F04020AC3CE412029FAB3089
:10075600AA2FA92EA82D12021C400D0524E52470EF
:100766000205237526108003E4F526E526FD7C00A8
:050776007F050209BC33
:100B3D007DFF7C007F041209BCE4FD0F1209BC127D
:0B0B4D000C2A120A71120BEE020ACBF8
:100BD700120B3D12064D1203C91209421205AF123C
:070BE70006E612077B80EC1B
:040B5800D2A07F0A9E
:100B5C00000000000000000000000000000000AEDB
:060B6C00071FEE70EB22F2
:0F0C3A00D2A1120B58C2A17F0A120B5CC2A022DA
:0C000E00C2A1120B58D2A17F0A020B5CA9
:0209F700AD074A
:1009F900E4FCC2A07F0A120B5CED30E704D2A180AF
:100A090002C2A17F0A120B5CD2A0ED25E0FD7F0A8C
:090A1900120B5C0CBC08DBC2A04E
:010A220022B1
:100B0500E4FC120B58ED25E0FD30A103430501C2BD
:0C0B1500A07F0A120B5C0CBC08E8AF05C6
:010B210022B1
:100C1800120B58A2A1E433FDC2A07F0A120B5CAFED
:010C280005C6
:010C290022A8
:100BBF00C2A0EF24FF92A17F0A120B5C120B58C246
:080BCF00A0D2A17F0A020B5C19
:040B72007F057E007D
:100B7600EF1FAA0670011E4A600BE4FDEDC3940C3C
:050B860050EE0D80F7A8
:010B8B002247
:020AAD00A90797
:100AAF00E4FBC294E9139294120B72D294E9C3132C
:0C0ABF00F90BBB08ED7F057E00020B76F2
:100B8C00E4FBC294ECC313FCD29430940343048072
:090B9C00120B720BBB08EBAF0455
:010BA500222D
:100A4A00C200D2947F0C7E00120B76C2947F507E35
:100A5A0000120B76D2947F0A7E00120B76A2949231
:060A6A0000120B72A20055
:010A70002263
:10001E0002033FE86480F8E933E83360110460F0CE
:10002E00ED33EC337009E8FCE9FDEAFEEBFF220448
:10003E0060DED3EB9FEA9EE99DE8C2E78CF0C2F743
:10004E0095F0400CE8CCF8E9CDF9EACEFAEBCFFB0F
:10005E0012030A85D0F05804700320D5B3E804705B
:10006E00075002B2D502034992D5EC0460F7E4CCF6
:10007E00C0E0C398F8603B94186008400DD0E0FBD8
:10008E00020321E4FBFAC9FC8028E830E406E4C947
:10009E00FBE4CAFCE830E305E4C9CACBFCE854072C
:1000AE006010F8C3E913F9EA13FAEB13FBEC13FC37
:1000BE00D8F130F52FC3E49CFCEF9BFFEE9AFEEDDA
:1000CE0099FDD0E0FBEF4E4D4C701222DB03020384
:1000DE0046EC2CFCEF33FFEE33FEED33FDED30E757
:1000EE00EB020321EF2BFFEE3AFEED39FDD0E0FBE4
:1000FE0050130BBB0003020349ED13FDEE13FEEF8D
:08010E0013FFEC13FC020321B6
:10011600EC4D6011E8497017ED33EC3304600DE4E3
:10012600FCFFFEFD22E933E8330470F802033F12B8
:10013600030A58046009E4CC2481500628500902B9
:100146000349284003020346C0E0EB4A7044B980E5
:1001560006D0E0FB020335EF4E701CBD8008EBFFB6
:10016600EAFEE9FD80EBE98DF0A4FEE5F00201FF71
:10017600E9CDF9EAFEEBFFEF89F0A4FCE5F0CE89C4
:10018600F0A42EFFE435F0CD89F0A42DFEE435F081
:100196008067EF4E7005BD80D780C3EF8BF0A4ACAF
:1001A600F0EE8BF0A42CFCE435F0F8EF8AF0A42CEA
:1001B600E5F038FCE433CB8DF0A42CFCE5F03BF8FD
:1001C600EE8AF0A42CFCE5F038F8E433CF89F0A4ED
:1001D6002CFCE5F038CF3400CE89F0A42FFFE5F0F3
:1001E6003EFEE433C98DF0A42EFEE5F039CD8AF04B
:1001F600A42FFFE5F03EFEE43DFD33D0E0FB5007C3
:100206000BBB000F020349EC2CFCEF33FFEE33FE71
:06021600ED33FD0203219F
:10021C0074F8CC6480CCC86480C8F58204604FC389
:10022C00EB9FF5F0EA9E42F0E99D42F0E89C45F028
:10023C00603C501DE5825FFFE582D313CB5BCBF4B2
:10024C002B5582FB50280ABA002409B900200880DB
:10025C001DE5825BFBE582D313CF5FCFF4C3132F75
:10026C005582FF50090EBE00050DBD00010CC3EBFD
:10027C009FF5F0EA9E42F0E99D42F0E89C45F06063
:09028C0007CC4820E701B3EC2285
:1002950075F020800E75F010800575F0087D007EE4
:1002A500007F003392D530D5031203BBEC334010E9
:1002B500EF33FFEE33FEED33FDEC33FCD5F0ED22ED
:0E02C500E5F0247EA2D513CC92E7CDCEFF2229
:1002D300EDD2E7CD33EC3392D524814006E4FFFE23
:1002E300FDFC22FCE4CFCECDCC24E0501174FF8082
:1002F300EDC3CC13CCCD13CDCE13CECF13CF04701F
:07030300F030D5DE0203BB60
:10030A00E9D2E7C933E833F892D5EDD2E7CD33EC39
:07031A0033FC5002B2D522B2
:10032100EC30E7100FBF000C0EBE00080DBD00043D
:100331000BEB6014A2D5EB13FCED92E7FD2274FFE9
:10034100FCFDFEFF22E480F8A2D574FF13FC7D8042
:03035100E480EF56
:0300000002080CE7
:0C080C00787FE4F6D8FD75813F020853A8
:10035400EF8DF0A4A8F0CF8CF0A428CE8DF0A42EBD
:02036400FE2277
:10036600BC000BBE0029EF8DF084FFADF022E4CC7B
:10037600F875F008EF2FFFEE33FEEC33FCEE9DEC44
:10038600984005FCEE9DFE0FD5F0E9E4CEFD22ED8A
:10039600F8F5F0EE8420D21CFEADF075F008EF2FD4
:1003A600FFED33FD4007985006D5F0F222C398FDC5
:0503B6000FD5F0EA2262
:0E03BB00C3E49FFFE49EFEE49DFDE49CFC2253
:10081800020BD7E493A3F8E493A34003F68001F214
:1008280008DFF48029E493A3F85407240CC8C333E1
:10083800C4540F4420C8834004F456800146F6DFB0
:10084800E4800B010204081020408090097FE47EB8
:10085800019360BCA3FF543F30E509541FFEE493A5
:10086800A360010ECF54C025E060A840B8E493A36C
:10087800FAE493A3F8E493A3C8C582C8CAC583CA97
:10088800F0A3C8C582C8CAC583CADFE9DEE780BE4F
:0109BB00003B
:00000001FF
